:020000040800F2
:10000000000002205909000855090008ED460008C3
:1000100055090008550900085509000800000000AE
:10002000000000000000000000000000550900086A
:100030005509000800000000550900087146000835
:100040005509000855090008550900085509000818
:100050005509000855090008550900085509000808
:10006000550900085509000855090008794200089B
:10007000854200083D2D0008914200089D4200087D
:1000800075F400085D370008550900085509000897
:1000900055090008550900085509000855090008C8
:1000A00055090008550900085509000855090008B8
:1000B00035E8000841E800084DE8000891370008DD
:1000C000550900089D37000855090008A5E00008FB
:1000D000B1E00008A9F20008D9F200080DF3000809
:1000E00055090008550900080000000055090008DE
:1000F0005509000855090008550900085509000868
:10010000550900085509000859E80008BDE0000835
:1001100041F3000875F3000809300008550900088C
:10012000F12F0008FD2F0008E1E0000815E10008AC
:10013000A9F40008550900085509000855090008E8
:1001400000000000000000000000000000000000AF
:10015000550900085509000855090008A9F30008C9
:10016000A93700085509000881460008A54600087F
:1001700055090008C9460008550900085509000836
:100180005509000855090008DDF300080DF40008C2
:10019000C9E00008D5E00008550900085509000825
:1001A00055090008550900085509000855090008B7
:1001B000993F00085509000855090008550900082D
:1001C0005509000855090008550900085509000897
:1001D0005509000855090008550900085509000887
:1001E0005509000855090008550900085509000877
:1001F0005509000855090008550900085509000867
:100200005509000855090008550900085509000856
:100210005509000855090008550900085509000846
:10022000550900085509000855090008000000009C
:10023000550900085509000800000000550900088C
:100240005509000855090008550900085509000816
:100250005509000855090008550900085509000806
:1002600055090008550900085509000855090008F6
:10027000550900085509000841F400080000000075
:10028000550900085509000855090008000000003C
:08029000000000005509000800
:1002980010B5054C237833B9044B13B10448AFF3B8
:1002A80000800123237010BDE0030024000000003B
:1002B800702C010808B5034B1BB103490348AFF381
:1002C800008008BD00000000E4030024702C010831
:1002D80081F0004102E000BF83F0004330B54FEAEF
:1002E80041044FEA430594EA050F08BF90EA020F5C
:1002F8001FBF54EA000C55EA020C7FEA645C7FEAEF
:10030800655C00F0E2804FEA5454D4EB5555B8BF11
:100318006D420CDD2C4480EA020281EA030382EA82
:10032800000083EA010180EA020281EA0303362D14
:1003380088BF30BD11F0004F4FEA01314FF4801CE7
:100348004CEA113102D0404261EB410113F0004FF9
:100358004FEA03334CEA133302D0524263EB4303B0
:1003680094EA050F00F0A780A4F10104D5F1200E4E
:100378000DDB02FA0EFC22FA05F2801841F10001A9
:1003880003FA0EF2801843FA05F359410EE0A5F17D
:1003980020050EF1200E012A03FA0EFC28BF4CF0AE
:1003A800020C43FA05F3C01851EBE37101F0004564
:1003B80007D54FF0000EDCF1000C7EEB00006EEB71
:1003C8000101B1F5801F1BD3B1F5001F0CD34908FB
:1003D8005FEA30004FEA3C0C04F101044FEA445252
:1003E80012F5800F80F09A80BCF1004F08BF5FEAD9
:1003F800500C50F1000041EB045141EA050130BDB9
:100408005FEA4C0C404141EB0101013C28BFB1F5CA
:10041800801FE9D291F0000F04BF01460020B1FA15
:1004280081F308BF2033A3F10B03B3F120020CDAE8
:100438000C3208DD02F1140CC2F10C0201FA0CF0C6
:1004480021FA02F10CE002F11402D8BFC2F1200C2B
:1004580001FA02F120FA0CFCDCBF41EA0C019040E1
:10046800E41AA2BF01EB0451294330BD6FEA04042A
:100478001F3C1CDA0C340EDC04F11404C4F1200215
:1004880020FA04F001FA02F340EA030021FA04F327
:1004980045EA030130BDC4F10C04C4F1200220FA7E
:1004A80002F001FA04F340EA0300294630BD21FABC
:1004B80004F0294630BD94F0000F83F4801306BF82
:1004C80081F480110134013D4EE77FEA645C18BF76
:1004D8007FEA655C29D094EA050F08BF90EA020F0D
:1004E80005D054EA000C04BF1946104630BD91EA05
:1004F800030F1EBF0021002030BD5FEA545C05D108
:100508004000494128BF41F0004130BD14F5800446
:100518003CBF01F5801130BD01F0004545F0FE41BA
:1005280041F470014FF0000030BD7FEA645C1ABFEF
:10053800194610467FEA655C1CBF0B46024650EA26
:10054800013406BF52EA033591EA030F41F4002152
:1005580030BD00BF90F0000F04BF0021704730B5D8
:100568004FF4806404F132044FF000054FF00001AD
:1005780050E700BF90F0000F04BF0021704730B56E
:100588004FF4806404F1320410F0004548BF404243
:100598004FF000013EE700BF42004FEAE2014FEA98
:1005A80031014FEA02701FBF12F07F4393F07F4F73
:1005B80081F06051704732F07F4208BF704793F076
:1005C8007F4F04BF41F40021704730B54FF4607489
:1005D80001F0004521F000411CE700BF50EA01028C
:1005E80008BF704730B54FF000050AE050EA010235
:1005F80008BF704730B511F0004502D5404261EBA5
:1006080041014FF4806404F132045FEA915C3FF4E5
:10061800D8AE4FF003025FEADC0C18BF03325FEA82
:10062800DC0C18BF033202EBDC02C2F1200300FA33
:1006380003FC20FA02F001FA03FE40EA0E0021FA58
:1006480002F11444BDE600BF53B94AB9002908BFF6
:1006580000281CBF4FF0FF314FF0FF3000F074B995
:10066800ADF1080C6DE904CE00F006F8DDF804E001
:10067800DDE9022304B070472DE9F047089D0446E0
:100688008E46002B4DD18A42944669D9B2FA82F23D
:1006980052B101FA02F3C2F1200120FA01F10CFA79
:1006A80002FC41EA030E94404FEA1C48210CBEFBB1
:1006B800F8F61FFA8CF708FB16E341EA034306FB3A
:1006C80007F199420AD91CEB030306F1FF3080F0C9
:1006D8001F81994240F21C81023E63445B1AA4B216
:1006E800B3FBF8F008FB103344EA034400FB07F7B8
:1006F800A7420AD91CEB040400F1FF3380F00A81F9
:10070800A74240F207816444023840EA0640E41BED
:1007180000261DB1D4400023C5E900433146BDE899
:10072800F0878B4209D9002D00F0EF800026C5E93B
:10073800000130463146BDE8F087B3FA83F6002E53
:100748004AD18B4202D3824200F2F980841A61EBCB
:10075800030301209E46002DE0D0C5E9004EDDE7E9
:1007680002B9FFDEB2FA82F2002A40F09280A1EBD1
:100778000C014FEA1C471FFA8CFE0126200CB1FB26
:10078800F7F307FB131140EA01410EFB03F088421F
:1007980008D91CEB010103F1FF3802D2884200F2AC
:1007A800CB804346091AA4B2B1FBF7F007FB10113E
:1007B80044EA01440EFB00FEA64508D91CEB0404DC
:1007C80000F1FF3102D2A64500F2BB800846A4EB37
:1007D8000E0440EA03409CE7C6F12007B34022FA22
:1007E80007FC4CEA030C20FA07F401FA06F31C4351
:1007F800F9404FEA1C4900FA06F3B1FBF9F8200C5E
:100808001FFA8CFE09FB181140EA014108FB0EF0A3
:10081800884202FA06F20BD91CEB010108F1FF3AF3
:1008280080F08880884240F28580A8F102086144FF
:10083800091AA4B2B1FBF9F009FB101144EA01410D
:1008480000FB0EFE8E4508D91CEB010100F1FF34B8
:100858006CD28E456AD90238614440EA0840A0FB50
:100868000294A1EB0E01A142C846A64656D353D026
:100878005DB1B3EB080261EB0E0101FA07F722FA4A
:1008880006F3F1401F43C5E9007100263146BDE873
:10089800F087C2F12003D8400CFA02FC21FA03F3D6
:1008A800914001434FEA1C471FFA8CFEB3FBF7F057
:1008B80007FB10360B0C43EA064300FB0EF69E427C
:1008C80004FA02F408D91CEB030300F1FF382FD215
:1008D8009E422DD9023863449B1B89B2B3FBF7F6BD
:1008E80007FB163341EA034106FB0EF38B4208D996
:1008F8001CEB010106F1FF3816D28B4214D9023ED7
:100908006144C91A46EA004638E72E46284605E7F4
:100918000646E3E61846F8E64B45A9D2B9EB0208C5
:1009280064EB0C0E0138A3E74646EAE7204694E755
:100938004046D1E7D0467BE7023B614432E7304688
:1009480009E76444023842E7704700BFFEE700BF8A
:100958000B480C4A904203D0121A0B4911F066FE5C
:100968000A480B4A904203D0121A002111F06CFE7B
:1009780004F0E4F811F036FE00F02AFBFEE700BFB1
:1009880000000024E0030024A42C0108E003002454
:10099800D03F0024704700BF704700BF704700BFBA
:1009A800704700BF2DE9F04F2DED028B83B0C64C88
:1009B8000646C6480F46009200F098FDC34800F06E
:1009C800A1FD204601F02AFF23791BB1A37A7F2BD2
:1009D80000F06682BE4B1A680193BE49BB4881FB92
:1009E8000231D317DFF82CB3C3EB61030221BA4CF1
:1009F80003EB8303DFF820A3DFF82093D31A019ACF
:100A0800DFF81C83136000F07FFDB44B0421AF486E
:100A180083ED000A00F078FD0521AC488BED000A53
:100A280000F072FD0121A94884ED000A00F06CFD78
:100A38000621A6488AED000A00F066FD0021A348B9
:100A4800A74D89ED000A00F05FFD07219F4888ED5A
:100A5800000A00F059FD03219C4885ED000A00F0CA
:100A680053FD9E4BF7EE006A9BED006AD3ED007ACA
:100A780094ED007A77EE867A9A4C84ED000A77EE48
:100A8800877AF4EEE67AF1EE10FA07DCF5EEC07A32
:100A9800F1EE10FA40F10182DFEDA86AF0EE667A15
:100AA8009AED007AB7EE006AD9ED005A8E4B37EE10
:100AB800257AC3ED007AB4EEC67AF1EE10FA00F3A7
:100AC8005B82B5EEC07AF1EE10FA00F1E38195EDA4
:100AD800005AB7EE006AD8ED005A844D75EE855A73
:100AE80085ED007AF4EEC65AF1EE10FA07DCF5EE61
:100AF800C05AF1EE10FA40F1C681BFEE006ADFF885
:100B08002482B0EE670ADFF820B2794888ED006ADF
:100B1800CBED006A01F032FED8ED000AB1EE000A12
:100B2800F1EE600A11F060FADBED007A20EE270A98
:100B3800F7EE007AB4EEE70AF1EE10FA00F3198244
:100B4800B5EEC00AF1EE10FA00F19A81DFED697A8C
:100B580060EE277ADFF8D4A1D8ED000A9FED660A87
:100B6800CAED007A11F040FADBED007A20EE270A90
:100B7800F7EE007AB4EEE70AF1EE10FA00F302821B
:100B8800B5EEC00AF1EE10FA00F1FF81DFED597AF7
:100B980060EE277ADFF89891B1EE000AD8ED000AE6
:100BA800C9ED007A11F020FADBED007A20EE270A71
:100BB800F7EE007AB4EEE70AF1EE10FA00F3DF81FF
:100BC800B5EEC00AF1EE10FA00F1E581DFED497AE1
:100BD80060EE277AD8ED000ADFF85881F1EE600A56
:100BE8009FED450AC8ED007A11F0FEF9DBED007AB9
:100BF80020EE270AF7EE007AB4EEE70AF1EE10FAD3
:100C080000F3B481B5EEC00AF1EE10FA00F1C0812C
:100C18009FED387A20EE077AD4ED007ADFED356A59
:100C280067EEA77A9AED000ADFF80CA1334867EE61
:100C3800A67A8AED007AC4ED007A11F023F999EDCD
:100C4800000A2F4811F01EF998ED000A2D4811F0FE
:100C580019F99AED000A2C4811F014F995ED000ADB
:100C6800264811F073F995ED000A254811F06EF940
:100C780095ED000A234811F069F995ED000A22481C
:100C880011F064F994ED000A204811F0FBF89FED8B
:100C98002B0A1E4811F05AF994ED000A1C4811F06D
:100CA800F1F89FED260A1A4811F050F9009B002B25
:100CB80000F0E1800024DFF85490DFF85480DFF87A
:100CC8003CB0DFF83CA073E0FC030024400500249E
:100CD8000C040024676666661C04002420040024B3
:100CE80024070024BC040024100400241007002456
:100CF800D004002400409C469A99D93F2C07002430
:100D080078070024C40700241008002424040024C1
:100D18007004002418040024180700241407002471
:100D2800280700242007002414040024C0040024F9
:100D3800C4040024C8040024CC04002400000000DB
:100D4800022B00F0D480032B00F0F580042B00F078
:100D5800AC809BED0C7AB6EE008ADAED0C7A3B6833
:100D680077EE877A1FED0B0A2B448C4867EE887A5A
:100D7800C3ED007A8A4BD3ED0C7A8A4B93ED0C7A4B
:100D88007B6877EE877A2B4467EE887AC3ED007A22
:100D980001F0F4FCB0EE480A8348013401F0EEFC9F
:100DA800B7EE000A814801F0E9FC009BA34262D03B
:100DB8007F48A50001F0F4FC784801F0F1FC7A487E
:100DC80001F0EEFC794801F0EBFC3368794803EB5D
:100DD800840393ED000A10F0F1FF736876482B4402
:100DE80093ED000A10F0EAFF99ED0D0A734810F030
:100DF800E5FF99ED0D0A724810F0E0FF98ED0D0A35
:100E0800684810F0DBFF98ED0D0A654810F0D6FF32
:100E1800019B1B68012B93D1DAED0E7AF6EE006A7E
:100E28009BED0E7AB7EE000A3B6837EE277A5B48EF
:100E38002B4427EE267A83ED007A5A4BD3ED0E7AAF
:100E4800574B93ED0E7A7B6877EE877A2B4467EEE3
:100E5800A67AC3ED007A01F091FC9FED5A0A524838
:100E6800013401F08BFC9FED570A504801F086FCD5
:100E7800009BA3429CD103B0BDEC028BBDE8F08F70
:100E8800DFED507A66E6B0EE007ABFEE006AA5EEB6
:100E9800876A34E69FED4B7A19E667EEA76AFFE5A5
:100EA800494B1A680193013297E5DBED0F7AB6EEEC
:100EB800000A9AED0F7A3B6837EE277A2B4427EE23
:100EC800007A83ED007A364BD3ED0F7A354B93EDEC
:100ED8000F7A77EE877A67EE807A7B682F482B4403
:100EE800C3ED007A01F04AFC9FED360A54E7DAEDCB
:100EF8000D7AF6EE006A9BED0D7A3B6837EE277A9D
:100F08009FED300A2B44254827EE267A83ED007A98
:100F1800244BD3ED0D7A224B93ED0D7A7B6877EE57
:100F2800877A2B4467EEA67AC3ED007A01F026FC97
:100F3800B7EE000A93E7DAED107AF6EE006A9BED59
:100F4800107A3B6837EE277A9FED1E0A2B4427EE6E
:100F5800267A83ED007A134BD3ED107A104B93ED7C
:100F6800107A77EE877A67EEA67AB6E79FED177A5A
:100F780052E6DFED167AEDE5B0EE467AA7E5DFED4D
:100F8800137A27E6DFED117A04E6DFED0E7A01E643
:100F98009FED0C7A40E6DFED0B7A1BE6EC040024AB
:100FA80010080024C4070024080500242405002490
:100FB800D004002424040024700400242C070024F6
:100FC80078070024000000000C04002400409C4620
:100FD80008B5304800F044F92F4B9FED300A1A78D5
:100FE80059782F4842EA01212E4C01F0FDFB29488F
:100FF80000F078FA2C4B00222C4819785B7884EDA5
:10100800000A41EA032101F095FB294B94ED000AFF
:10101800002219785B78274841EA032101F08AFB0E
:10102800254B94ED000A002219785B78234841EAA1
:10103800032101F07FFB224B002294ED000A19786E
:101048005B78204841EA032101F074FB94ED000A23
:101058001D4810F08FFE94ED000A1C4810F08AFE1F
:1010680094ED000A1A4810F085FE94ED000A19481C
:1010780010F080FE94ED000A174810F07BFE174828
:1010880094ED000A10F076FE1549024800F026FAA1
:10109800FEE700BF40050024B42601080000000058
:1010A800FC0300241C070024B8260108D0040024EF
:1010B800C0260108EC040024C42601080805002401
:1010C800C8260108240500242C07002478070024DA
:1010D800C4070024100800242404002470040024F9
:1010E800AD09000838B523480023234C0362836206
:1010F8002246224D2249C0E9033310F06DFF2246F3
:101108002049214810F068FF224629461F4810F060
:1011180063FF224629461E4810F05EFF22462946F4
:101128001C4810F059FF29461B4D22461B4810F059
:1011380053FF224629461A4810F04EFF22462946F8
:10114800184810F049FF22462946174810F044FF76
:1011580022462946154810F03FFF224629461448E2
:1011680010F03AFF224629461248BDE8384010F0F0
:1011780033BF00BF4005002400000024A109000877
:10118800A50900089D090008FC030024D0040024D8
:10119800EC04002408050024A909000824050024FB
:1011A8002C07002478070024C40700241008002412
:1011B800240400247004002400294ED0274BF0B5E5
:1011C800D0E90024481E03F10C0E951C03F1100C05
:1011D8004E00AC4218BF052802EB41058CBF012028
:1011E8000020624538BFAE452CBF01270027384292
:1011F80027D02644644538BFB64522D39D890026AA
:10120800D8894FEA510E65F30F06A44602EB8E0EFD
:1012180065F31F46002560F30F0560F31F45104670
:1012280040F8046B70454CF8045BF9D121F00100DB
:10123800C90705D5998922F81010DB8924F81030E0
:10124800F0BD023A023C023D998922F8021FAA42E7
:10125800D98924F8021FF7D1F0BD70475C08002433
:101268002DE9F04140F201138E4A012506462DED85
:10127800028BD8B0C0F8CC21ADF814300023049507
:101288008DF8163003F010FC002840F0FA80304644
:1012980004A903F065FB06F1080000F051FA824941
:1012A8000DF19408814B06F10C00814ACDE9251314
:1012B800012341462792ADF8A03002F0E5FC032255
:1012C800012300241AA902A806F110051A9414AFE4
:1012D8000294CDE91E2300220123CDE92023012217
:1012E8000023CDE92223734B1B9303F1007303F50D
:1012F80040731C934FF44173ADF8743003F044F815
:1013080001230AA903A80D940A930C9310230394AC
:101318008DF83830684B0B9302F048FA039906F1C0
:10132800200000F00BF94FF07E533021029A089309
:10133800284609930323CDE9061306A901F0F0F81E
:10134800284601F029F92846B0EE408A01F020F934
:10135800D0ED007ABC46DFF880E14546F8EE677AC2
:10136800BEE80F0088EE277AACE80F009EE803007D
:101378008CE8030086ED727A37F814100134284699
:10138800113501F079FA0C2CF6D106F11407224632
:1013980004234146384606F1300500249FED478A6C
:1013A80001F078FA09E001F06FFC96ED720A014647
:1013B8002846013401F05AF92035072CE1B23846A5
:1013C800F1D9E1B2013401F05FFC00230146F0EEEF
:1013D800480A28461A4696ED720A01F015F90C2CAF
:1013E800EAD1374B012430461B88F48520F82C3F7E
:1013F80001F072FF2246334906F5D87001F090F9E2
:101408002246314906F2B71001F08AF92F4B06F54A
:10141800DF70A6F8C0411B88A6F8BE3101F05CFF5A
:101428002B4B06F5E170A6F8C4411B88A6F8C2311B
:1014380001F052FF0223D6F8CC010FA91093002324
:10144800103013934BF68033CDE911440F9301F01C
:101458006FFE384601F002FCD6F8CC41237D04F13A
:101468001005DBB928461B4D2368D4E90112009505
:1014780001F0DCFE0123237558B0BDEC028BBDE8FA
:10148800F081044604A930468DF8165003F068FA36
:10149800072C7FF404AF0DF1940810E7284601F0FB
:1014A800FBFEDFE75C0800240508050905070506BB
:1014B800050A060604020404010A010B6F12033B25
:1014C800D0260108CC260108BC260108B026010850
:1014D800AC260108C111000860260108103001F08F
:1014E8005FB800BF103001F057B800BF38B500F141
:1014F800300400F5D8752046203401F0EDF8AC42F0
:10150800F9D138BD704700BF00EB411191ED0F0ACA
:10151800704700BF07490022074B01F1600010B473
:10152800302459601A611C601A755DF8044BC3E9D0
:1015380002027047000000305C080024F0B58C23DC
:1015480087B00160002203710124FA26194605AB11
:101558008DF81420029640220093234601940546F4
:1015680002F0BAF9002840F09B809DF814300DF184
:1015780017074022284603F07F030097CDE901466C
:101588008DF814308DF817302346297902F0CAF9FE
:10159800002840F08580042003F016F905AB4022AE
:1015A800284600932346CDE90146297902F094F9AB
:1015B800002875D19DF8143040220097284603F082
:1015C800BF03CDE901468DF814308DF81730234656
:1015D800297902F0A7F9002862D1042003F0F4F871
:1015E8000DF115034322284600932346CDE9014611
:1015F800297902F071F9002852D10DF11603482219
:10160800284600932346CDE90146297902F064F97A
:10161800002845D19DF8153043220097284643F00D
:1016280001038DF815308DF817309DF8163043F00A
:101638000103CDE901468DF816302346297902F0D9
:1016480071F968BB9DF816304822009728468DF836
:1016580017302346CDE90146297902F063F9F8B934
:1016680005AB4022284600932346CDE90146297957
:1016780002F032F9A0B99DF81420234601942846B7
:1016880002F0CF0402960097402229798DF8144081
:101698008DF8174002F046F9003818BF012000E025
:1016A800012007B0F0BD00BFF0B5102387B0234C70
:1016B800012200250126002702A920460195CDE92F
:1016C80002234FF48052CDE904670AF04BFB6420F3
:1016D80003F090FC02A94FF480522046CDE904673C
:1016E80002261027CDE902670AF03CFB03221023EB
:1016F80002A92046CDE9022300230422CDE90423D0
:101708004FF480520AF02EFB40F23223042202A941
:10171800019310232046CDE90223019A0123059263
:101728004FF4805204930AF01DFB40F60601204650
:101738000AF038FB284607B0F0BD00BF7C0800243B
:101748001C4B00221C494FF0400C30B5054689B0AF
:101758000220596007219A601A620124DA620A227B
:101768004FF4006EDC6006922022CDE900010420CF
:101778000821CDE9020103201021CDE90401082048
:101788006946C3E904024FF4C072181DC3E906C2D2
:101798004FF48052C3E909E20AF0BAFA38B9284688
:1017A800FFF782FF003818BF012009B030BD20467E
:1017B80009B030BD7808002440410052614A002138
:1017C800D0B513688EB00A91002B40F0B9805E4BFB
:1017D80001214FF683700C2411600221D3F8D42024
:1017E8000026032742F48052C3F8D420D3F8D4202B
:1017F80002F480520092009AD3F8E02042F01002DE
:10180800C3F8E020D3F8E02002F010020192019A18
:10181800D3F8E02042F04002C3F8E020D3F8E020FB
:1018280002F040020292029AD3F8E02042F0080245
:10183800C3F8E020D3F8E02002F008020392039AEC
:10184800D3F8E02042F48072C3F8E020D3F8E02017
:1018580002F480720492049AD3F8E02042F08002E5
:10186800C3F8E020D3F8E02002F080020592059A40
:10187800D3F8E02042F02002C3F8E020D3F8E020BB
:1018880002F020020692069AD3F8E02042F0040201
:10189800C3F8E020D3F8E0300C9403F00403079376
:1018A8000323079A0B93CDE9080108A9274805F0F7
:1018B8000DFD48F23712022308A925480C94CDE9FA
:1018C8000823CDE90A6705F001FD4CF203720223F3
:1018D80008A920480C94CDE90823CDE90A6705F04A
:1018E800F5FC40F2FF62022308A91B480C94CDE9DD
:1018F8000823CDE90A6705F0E9FC4FF60C720223CC
:1019080008A916480C94CDE90823CDE90A6705F023
:10191800DDFC4FF63F02022308A911480C94CDE9DB
:101928000823CDE90A6705F0D1FC2022022308A983
:101938000A480C94CDE90A67CDE9082305F0C6FCEE
:101948000EB0D0BD7408002400440258001002589C
:1019580000180258000C025800200258001C0258B7
:10196800001402582DE9F04FDFF8108406460D46A2
:10197800144608F118002DED028B89B000AF02F073
:10198800FBFDD8F8183073B3D8F81C30D8F8049099
:10199800002B43690BBF4FF0080A4FF0100A4FF0B5
:1019A800020B4FF0040BB9F1000F2AD0A200EA464F
:1019B800012B02F1070222F00702ADEB020D684687
:1019C800ADEB020D694600F03F81022B00F0D68096
:1019D800002B6FD02246C847D5462437BD46BDECFC
:1019E800028BBDE8F08FD8F81C30002BF5D0D8F862
:1019F80004904FF0080A4FF0020B4369B9F1000F49
:101A0800D4D1FB61D8F80030BB61002BE5D0D548B4
:101A180002F024FE6B46BBF1020F786108EE103A23
:101A2800FB6900F083816A465146A2EBC4029546E1
:101A38006200EA46B2FBFBF2AAEBC40085460AEB59
:101A48008200EE46F861ADEB010DF8690EEB820CF1
:101A5800C7F810C0EC46ADEB010D00EB8201CCF8E5
:101A68000400CCF8081001EB82013869E946CCF88B
:101A78000C1000EB8201CCF800A001EB8202C9E94E
:101A880000E0C9E90212012B00F06483022B00F088
:101A98006C82002B00F08081620849466046BB6971
:101AA800984718EE103A24379D46BD46BDEC028B88
:101AB800BDE8F08F002C8DD01A46D8ED0C6A9FED4A
:101AC800B27A8446331D36F922E00CF1080C07EE91
:101AD80090EA33F922E00232F8EEE77A944267EEB0
:101AE800877A67EEA67A4CED027A07EE90EAF8EE6E
:101AF800E77A67EE877A67EEA67A4CED017AE2D844
:101B0800F9612246C847984ED8ED0D6A0020F96958
:101B18002B1D9FED9E7A9FED9E6ADFED9E5A22E077
:101B2800F4EEC67AF1EE10FAC0F2C88447F6FE72F7
:101B3800D1ED017A45F8202066EEA77AF4EEC77A4F
:101B4800F1EE10FA40F2F080F4EEC67AF1EE10FAF7
:101B5800C0F2D58447F6FE7243F8202002300831DF
:101B680084427FF639AFD1ED007A66EEA77AF4EEBB
:101B7800C77AF1EE10FAD3D83246D9E7002C3FF4F1
:101B880029AFD8ED0C6A84469FED787A0022331D80
:101B98008E4656F822100CF1080C07EE901A53F8EE
:101BA80022100232F8EEE77A944267EE877A67EEFF
:101BB800A67A4CED027A07EE901AF8EEE77A67EE0D
:101BC800877A67EEA67A4CED017AE2D8714622460A
:101BD800C7F81CE0C847664ED8ED0D6A0020F969C1
:101BE8002B1D9FED6A7A9FED6A6ADFF894C120E0A9
:101BF800F4EEC67AF1EE10FAC0F279843246D1EDED
:101C0800017A45F8202066EEA77AF4EEC77AF1EE5D
:101C180010FA40F28780F4EEC67AF1EE10FAC0F2BC
:101C28005E84324643F820200230083184427FF631
:101C3800D3AED1ED007A66EEA77AF4EEC77AF1EE6C
:101C480010FAD5D86246DAE7002C3FF4C3AED8EDD7
:101C58000C6A86469FED477A4FF0000C331D56F804
:101C68002C200EF1080E82F40002A2F5000207EE05
:101C7800902A53F82C200CF1020CF8EEE77A82F443
:101C880000026445A2F5000267EE877A67EEA67A3D
:101C98004EED027A07EE902AF8EEE77A67EE877A39
:101CA80067EEA67A4EED017AD9D8F9612246C8477F
:101CB800314ED8ED0D6A0020F9692B1D9FED337A5E
:101CC8009FED336ADFF8BCC01FE0F4EEC67AF1EE90
:101CD80010FAC0F2FC833246D1ED017A45F8202093
:101CE80066EEA77AF4EEC77AF1EE10FA18D9F4EE98
:101CF800C67AF1EE10FAC0F2DA83324643F82020B1
:101D08000230083184427FF667AED1ED007A66EE84
:101D1800A77AF4EEC77AF1EE10FAD6D86246DBE776
:101D28006246EBE762467DE7324615E7A100D646F4
:101D38006208073121F00701ADEB010DEA46ADEB72
:101D4800010D6946ADEB0E0D0AEB8200EC46ADEBDA
:101D58000E0D01EB8202F861E946CCE900A0C9E961
:101D6800001290E6CC0800240280FFFF000000303B
:101D78000082FF7F0000003482FF7F00B00800244B
:101D8800007E00807E0080FF0000003804FF7FBFD7
:101D980004FF7F3F00FEFF46002C00F0C982BBF124
:101DA800020FD8F8242000F0FA827969C7F8049065
:101DB80002EB810E5FED0C5A8A00DCF808100EF178
:101DC80004007A611A46DCF80C303B61331DD7F801
:101DD80010903D61FD69C7E902CB8C46834636F910
:101DE8002210D8ED0C7A06EE101A33F9221006EEFE
:101DF800901A3EF92210B8EEC66A07EE101AF8EEED
:101E0800E66A3BF92210B8EEC77A26EE256A66EE36
:101E1800A56A27EE257A26EE276A66EEA76A27EED8
:101E2800277A07EE901A51080232F8EEE77A0AEBA1
:101E38008100944280ED006A05EB810067EEA57A87
:101E4800C0ED006A0CEB810009EB810180ED007A9E
:101E580098ED0C7A67EE877AC1ED007ABFD8D7F88B
:101E680004903D69D7E902CB60466208BB694946E0
:101E78009847D8F82C307A69D8ED0D6A1A441FEDC6
:101E88003D7A1FED3D6A2B1D904602F1040A5FED75
:101E98003F5A0022A84ED9E900EC51E0F4EEC67A88
:101EA800F1EE10FAC0F2C78247F6FE7045F822003C
:101EB8000CEB0100D0ED007A66EEA77AF4EEC77A53
:101EC800F1EE10FA4BD9F4EEC67AF1EE10FAC0F240
:101ED800BA8247F6FE70BBF1020F43F822002BD0FE
:101EE800D9F808000844D0ED007A66EEA77AF4EE37
:101EF800C77AF1EE10FA36D9F4EEC67AF1EE10FA96
:101F0800C0F2CD8247F6FE7048F82200D9F80C00DE
:101F18000144D1ED007A66EEA77AF4EEC77AF1EEC5
:101F280010FA1ED9F4EEC67AF1EE10FAC0F2AF82BA
:101F380047F6FE714AF82210023294427FF6B1AD9C
:101F480051080EEB81008900D0ED007A66EEA77A81
:101F5800F4EEC77AF1EE10FAA0D83046A6E730467C
:101F6800B9E73146E6E73046CEE7002C00F0E081DD
:101F7800BBF1020FD8F8243000F0E1817A69DCF86F
:101F8800081003EB820EC7F804909300DFED6B5A3C
:101F98000EF1040000227B61DCF80C303B61331D3C
:101FA800D7F810903D61FD69C7E902CB8C4683469E
:101FB80056F82210D8ED0C7A07EE101A53F82210B2
:101FC800B8EEC76A07EE101A5EF82210F8EEC76A74
:101FD80007EE101A26EE256A5BF82210B8EEC77ACB
:101FE80066EEA56A26EE276A27EE257A66EEA76AC8
:101FF80027EE277A07EE901A51080232F8EEE77AB0
:102008000AEB8100944280ED006A05EB810067EEDF
:10201800A57AC0ED006A0CEB810009EB810180ED27
:10202800007A98ED0C7A67EE877AC1ED007ABFD80E
:10203800D7F804903D69D7E902CB60466208BB69CE
:1020480049469847D8F82C307A69D8ED0D6A1A4471
:102058009FED3E7A9FED3E6A131D9246DFF8E4C07D
:102068000022FB612B1D364ED9E9008E4EE0F4EEBE
:10207800C67AF1EE10FAC0F2FC81304645F822002B
:102088000EEB0100D0ED007A66EEA77AF4EEC77A7F
:10209800F1EE10FA49D9F4EEC67AF1EE10FAC0F270
:1020A800EF813046BBF1020F43F822002AD0D9F85D
:1020B80008000844D0ED007A66EEA77AF4EEC77AF5
:1020C800F1EE10FA35D9F4EEC67AF1EE10FAC0F254
:1020D800C98130464AF82200D9F80C000144D1EDF4
:1020E800007A66EEA77AF4EEC77AF1EE10FA1ED9F6
:1020F800F4EEC67AF1EE10FAC0F2AD813146F86915
:1021080040F82210023294427FF6CBAC510808EB1B
:1021180081008900D0ED007A66EEA77AF4EEC77ADE
:10212800F1EE10FAA3D86046A8E76046BAE7614620
:10213800E5E76046CEE700BF0280FFFF0000003001
:102148000082FF7F007E00800000003404FF7FBF14
:1021580004FF7F3F002C00F0EB807A690021D8F85B
:102168002430C7F8109003EB820ED7F81C90930028
:10217800FD610EF104021FED0C6A7B61331D1546EB
:1021880056F821204808D8ED0C6ABBF1020F82F4FA
:102198000002A2F5000207EE902A53F8212082F4EB
:1021A8000002B8EEE77AA2F5000227EE067A07EEFB
:1021B800902A0AEB8002F8EEE77A27EE267A67EE95
:1021C800867A82ED007A09EB80024FEA800067EE9A
:1021D800A67AC2ED007A27D05EF8212082F40002A8
:1021E800A2F5000207EE902A55F8212082F4000299
:1021F800B8EEE77AA2F5000227EE067A07EE902AF3
:10220800DCF80820F8EEE77A024427EE267A67EE33
:10221800867A82ED007A98ED0C7ADCF80C2067EE6D
:10222800877A0244C2ED007A02318C42A8D8D7F8E6
:10223800109060466208BB694946FD699847D8F81E
:102248002C307A69D8ED0D6A1A441FED407A1FEDDB
:10225800406A131D9246DFF8C4C20022FB612B1DA1
:10226800AB4ED9E9008E4EE0F4EEC67AF1EE10FAE4
:10227800C0F2C580304645F822000EEB0100D0EDD3
:10228800007A66EEA77AF4EEC77AF1EE10FA49D929
:10229800F4EEC67AF1EE10FAC0F2BF803046BBF118
:1022A800020F43F822002AD0D9F808000844D0EDDC
:1022B800007A66EEA77AF4EEC77AF1EE10FA35D90D
:1022C800F4EEC67AF1EE10FAC0F2AE8030464AF863
:1022D8002200D9F80C000144D1ED007A66EEA77A05
:1022E800F4EEC77AF1EE10FA1ED9F4EEC67AF1EEE2
:1022F80010FAC0F28B803146F86940F82210023299
:1023080094427FF6CEAB510808EB81008900D0EDEE
:10231800007A66EEA77AF4EEC77AF1EE10FAA3D83F
:102328006046A8E76046BAE76146E5E76046CEE75B
:10233800224649466046BB699847FFF7B2BBC7F8D3
:1023480010B0002298ED0C6A331DDFED726AD7F8E1
:102358001CB0786956F8221007EE901A53F822102C
:10236800B8EEE77A07EE901A51080232F8EEE77AEB
:1023780027EE267A0AEB810E94420BEB810167EE79
:10238800A67A27EE067A67EE867A8EED007AC1ED98
:10239800007ADFD88300D7F810B07B614DE61A4683
:1023A800C7F810B098ED0C6A331DDFED5B6AD7F8FB
:1023B8001CB0786936F9221007EE101A33F922108A
:1023C80007EE901AB8EEC77A51080232F8EEE77AAB
:1023D80027EE267A0AEB810E94420BEB810167EE19
:1023E800A67A27EE067A67EE867A8EED007AC1ED38
:1023F800007ADFD88300D7F810B07B6134E5F0EEBF
:10240800675AFEEEE45A15EE900A34E7F0EE675A82
:10241800FEEEE45A15EE901A6EE7F0EE675AFEEEFD
:10242800E45A15EE900A3AE7F0EE675AFEEEE45ADF
:1024380015EE900A4BE767EEA57AFDEEE77A17EE00
:10244800900A00B232E567EEA57AFDEEE77A17EE5C
:10245800900A00B23FE5F0EE675AFEEEE05A15EE3C
:10246800901A4CE6F0EE675AFEEEE05A15EE900A26
:1024780030E6F0EE675AFEEEE05A15EE900AFDE5FA
:10248800F0EE675AFEEEE05A15EE900A0AE667EE9D
:10249800A57AFDEEE77A17EE901A09B24AE567EEDB
:1024A800A57AFDEEE77A17EE900A00B22CE5F0EE79
:1024B800675AFEEEE45A15EE902A1FE467EEA57AF5
:1024C800FDEEE77A17EE902A12B2FFF731BBF0EE75
:1024D800675AFEEEE45A15EE902AFFF7FDBBF0EEC0
:1024E800675AFEEEE05A15EE902AFFF79BBBF0EE16
:1024F800675AFEEEE05A15EE902AFFF780BB67EEAA
:10250800A57AFDEEE77A17EE902A12B2FFF724BB00
:1025180082FF7F0000000030000000387E0080FF4E
:1025280030B5184C154685B0046004F1080EEC4629
:102538000FC98EE80F00D4ED047AF5EEC07A8CE866
:102548000F00F1EE10FA1ADDB7EE006A94ED057A85
:1025580027EE277AC6EE276A84ED0D7AC4ED0C6A59
:102568006DB1204640F8185F02F006F80649036985
:102578000020064A2162A262E36005B030BD012056
:1025880005B030BDB0080024C0200030C0000030C5
:1025980000680830704700BF0068183002F04CB877
:1025A80030B5046883B00D46E3694BB1A3680020D9
:1025B800E26A616A9B00009004F11C0001F0DEFFF2
:1025C800A3680748A26A9B00216A009004F11800DA
:1025D80001F0D4FF0020C4E9005003B030BD00BFB3
:1025E8006D19000810B4074B4FF07E5130240022BB
:1025F800032019619C60D8605DF8044B5961C3E9F8
:1026080006227047B0080024F6EE007A9FED166A9D
:1026180020EE207A0160F7EE006A80ED036A80ED13
:10262800020A27EE277AC6EE877AF4EEE67AF1EE0A
:1026380010FA11DDF0EE667A4FF07E514FF0000C83
:1026480002760022C0ED017AC0F814C00161437619
:102658008276C0ED070A7047F4EEC67AF1EE10FAFA
:10266800EAD5F0EE467AE7E700000000DFED187AD9
:10267800B6EE007AF7EE006A9FED166A60EE277AEA
:10268800016080ED036A80ED020A67EE877A86EEC4
:10269800A77AB4EEE67AF1EE10FA10DDB0EE667ABB
:1026A8004FF0804C4FF07C514FF48072012380ED45
:1026B800017AC0F810C04161028383767047B4EE96
:1026C800C67AF1EE10FAEBD5B0EE467AE8E700BF2D
:1026D8006F12033B000000000268037E128807EEB9
:1026E800902AFBEEC87A1BB1B7EE007A77EE677ACC
:1026F800D0ED056A90ED047A77EEE67A437E67EED0
:10270800877A0BB1F1EE677A90ED030A90ED017AC2
:1027180077EEC07AA7EE270A80ED030A704700BF5C
:1027280009884FF0000C8271C0F802C0018000F0E7
:10273800D3BD00BF30B52DED028B83B00446012315
:102748001546ADF804101730BDF80410B0EE408AF5
:102758000180637600F0C0FDB5FA85F30022002100
:102768005B092575A16084ED048AA5756375C4E9C4
:10277800002203B0BDEC028B30BD00BF20EE007A12
:10278800DFED067A27EE000A60EE277A80ED020A6E
:10279800FCEEE77AC0ED017A704700BF00FF7F4783
:1027A80090ED046AB7EE007ADFED0E5A0346D0EDDD
:1027B800036AC5EE867A77EEA67AF4EEC77AF1EE6A
:1027C80010FAC8BF77EEC77A90ED027AB4EEE77ACE
:1027D800C0ED037A1730F1EE10FACCBF597D997D20
:1027E80000F064BE0000F04270B5044682B0C1F348
:1027F8000726CDB2ADF8041001F0E4FF4FF4807263
:102808004FF001232060A01DA571A280E671A3608E
:1028180002B0BDE8704000F05FBD00BF38B50446A7
:1028280001F0D0FF002223682271834210D00122D8
:10283800A57AE37A954020602271A01D6DB243B954
:1028480000F026FE40B22843C0B27F28A0720AD00A
:1028580038BD00F01DFEB0FA80F040092843C0B230
:102868007F28A072F4D101F0ADFF07EE900AF8EED0
:10287800677AC4ED037A38BD82B04FF0000C0323A9
:10288800ADF80410BDF8042080F810C00280438021
:1028980002B070472DE9F04FBE4E00258FB0BE4CF8
:1028A800037006F1400342600746019288462022E1
:1028B80029463046C4F85831C4F85461CDE9035567
:1028C800CDE90555CDE90755CDE90955CDE90B55B4
:1028D8000FF0BAFE2022294604F59970C4F8215158
:1028E800C4F82551C4F82951C4F82D510FF0ACFE95
:1028F800019B84F8385284F820317A68002A5FD026
:102908002B464146B64604F5907599464FF0010AA4
:1029180003EB0310D1F800B0D1F804800133D1F8EB
:1029280008C02218CE6844F800B0C2F80480C2F883
:1029380008C0D660087C2EF8029B10740A7C05F843
:10294800012F002A69D07A68113184F838A29A4296
:10295800DED84FF4802291489DF8043008214FF0CA
:1029680000084FF00009C4F874310023C4E9570285
:102978000122C4F8643184F87031C4E95A2194F80A
:102988003812C4E9608981B3C4F88821002284F828
:10299800713184F878313B78C4E96322A3B301220A
:1029A80000200121013B84F89421C4E96801082B27
:1029B8002CD8DFE803F0ABB0B5BABFC4C9CFD60096
:1029C8009DF804300121C4F86421C4F874314FF42F
:1029D800802384F87021714AC4E957230823002210
:1029E800C4E95A130023C4E960230123002284F8B0
:1029F8007131002384F878310323C4F888313B7897
:102A0800C4E96322002BCAD184F89431644802F0E7
:102A180029FF034638B1FFBEFEE77A6811319A42B2
:102A28003FF676AF95E703A95D48039303F078F87E
:102A38000546002868D1022240F2FF73CDE9082339
:102A480000230422CDE90A2394F82031002B00F05A
:102A5800D5804FF0060921E0022B00F08980012B78
:102A680040F0C4809AF80130012B00F0C180002B9F
:102A78004C4B18BF002306A94948CDE9063902F096
:102A88001DFB002840F0BF80013594F82031EDB2DD
:102A9800AB4240F2B380444B53F825902FB207EB7A
:102AA800071704EB070A504600F016FC05EB051360
:102AB80023441B7C042B7DDC022B00F3918000F067
:102AC8008D806319002283F81021E35D002BC3D1A8
:102AD8009AF80130062B00F08580072B00F08A80D9
:102AE800022B00F09680032B00F09580002B00F05D
:102AF8009680012B00F09180042B00F09280052B2A
:102B08002A4B18BF0023B6E7FFBEFEE70322402387
:102B1800C4E966237AE707226023C4E9662375E7D8
:102B28000F228023C4E9662370E71F22A023C4E98B
:102B380066236BE73F22C023C4E9662366E77F224A
:102B4800E023C4E9662361E7FF224FF48073C4E9F8
:102B580066235BE740F2FF124FF49073C4E96623E3
:102B680054E740F2FF324FF4A073C4E966234DE7FF
:102B78009AF80130042B37D0052B3DD0002B40D0DC
:102B8800012B42D0022B42D0032B094B18BF002344
:102B980071E700BFC0400030E80800240020024070
:102BA800440A00240002B025D42601080000B84FCA
:102BB8000020903603233E1D04EB05084FF0000B60
:102BC800264488F8103130460BF1010B00F084FBE5
:102BD80098F8103104365B45F5DC76E70123EAE71F
:102BE8000223E8E7104B46E7104B44E7002342E78F
:102BF8000F4B40E70F4B3EE70F4B3CE70FB0BDE8EC
:102C0800F08F0E4B37E7FFBEFEE70D4B33E70D4B5A
:102C180031E70D4B2FE70D4B2DE70D4B2BE70D4BF8
:102C280029E70D4B27E700BF0800900C1000C010E3
:102C38002000F0148000501D000180210004002AAB
:102C48000008302E001060320040C03A0080F03E8C
:102C580000005247000021430000844B38B5094C5E
:102C680040F2FF724FF0011104F5AE75284602F0EC
:102C780005FF94F82021D4F854112846BDE83840BF
:102C880002F070BCE8080024034B0F29D3F8540164
:102C980098BF00EB41007047E8080024214B026808
:102CA8009A4200D07047204A00232048D2F8D81012
:102CB80030B51F4C41F0200183B0C4F8C001092091
:102CC80004F5E075C4E971034FF48060C2F8D810C8
:102CD800D2F8D8204FF40061C4E9733094F8380270
:102CE80002F02002C4F8D4114FF400519842019226
:102CF8002846C4F8D811C4E97833019B14BF0023CF
:102D08004FF48073C4F8DC3103F008FB08B1FFBE50
:102D1800FEE704F5AE73C4F8A851C4F8F83103B05F
:102D280030BD00BF0020024000440258400002406D
:102D3800E8080024014803F077BF00BFA80A002470
:102D480002682DE9F84F4B4B9A4201D0BDE8F88F45
:102D5800494D95F83832002BF8D095F82031002BE2
:102D680077D0002405F10C0905F5997605F59077DB
:102D7800A04613E003F0010117F811BCA9F10800FF
:102D880000F094FBBBF1010F25D895F820310134F0
:102D980009F111090236A2B293422BD917F8012F73
:102DA800002AF4D0D5F854310021327833F81400D1
:102DB800D5F8583103EB041323F812003388013394
:102DC8009BB233805FFA83FA3A789A42D2D88A461D
:102DD800A6F80080D0E7CAF34001A9F1040000F08A
:102DE80065FBBBF1020FCAF38001CED0484600F064
:102DF8005DFBCAE7002395F838022049092298426A
:102E0800C5F8C8314FF48060C5F8C011C5F8C421B1
:102E18004FF400614FF40052C5F8CC3108BF4FF4AD
:102E28008073C5F8D821C5E9740100221448C5E9A2
:102E38007732C5F8E42103F071FA08B1FFBEFEE766
:102E480095F82021D5F854110E48BDE8F84F02F046
:102E580089BB0A4909224FF48060C5F8C831C5E921
:102E680070124FF400614FF40052C5E97330C5E9A0
:102E78007512DAE700200240E8080024400002400A
:102E8800A80A0024440A0024704700BF4F4B026878
:102E98009A4200D070474E4BD3F8E81030B541F055
:102EA80000514C4C85B0D4F84821C3F8E810D3F849
:102EB800E81001F0005101910199D3F8E01041F0B8
:102EC8000101C3F8E010D3F8E03003F001030293E6
:102ED800029B32F002033DD0013A012A6BD9D4F8A3
:102EE8004C31012B0AD000223620114602F08CFE0C
:102EF800362005B0BDE8304002F0C4BED4F84831F1
:102F080033F0020234D0013B012BECD84422402399
:102F18003149324DC4F88C1000212846C4F8B0104D
:102F2800C4E9242300224FF48063C4E926234FF424
:102F380000624FF40053C4E928234FF480724FF421
:102F48008033C4E92A2303F0E9F980B9E560C4F8BD
:102F5800C440C8E74FF48062032303A8ADF80C20EF
:102F68008DF80E3000F0B8F9D4F84821B4E7FEE740
:102F78001B4BA2634322636140231A4DC4E9062315
:102F880000224FF480632846C4E908234FF4006206
:102F98004FF40053C4E90A234FF480724FF480338E
:102FA800C4E90C2303F0BAF920B9D4F84831A56074
:102FB800E464A8E7FEE74FF4A062032303A8ADF892
:102FC8000C208DF80E3000F087F988E70074004077
:102FD80000440258280B002428040240B40B0024A3
:102FE800100402403C0B0024014803F01DBE00BF42
:102FF8003C0B0024014803F017BE00BFB40B0024AB
:1030080010B5054C204602F0B9FF04F58270BDE802
:10301800104009F075B800BF280B0024164BD3F8F0
:103028004821D3F85811022A4FEA510130B583B02C
:103038000CD088B2D3F85C21D3F8644102EB40038A
:1030480000930CB16846A04703B030BDD3F86021A7
:10305800002AF9D088B2D3F85C41D3F8645104EB64
:10306800400402EB4002CDE90042002DECD0684656
:10307800A84703B030BD00BF280B0024134BD3F87A
:103088004821022A10B582B00CD0D3F85C11D3F8CD
:103098006421009122B1D3F8581168464908904735
:1030A80002B010BDD3F86021002AF9D0D3F85C1122
:1030B800D3F86441CDE90012002CF1D0D3F85811AF
:1030C80068464908A04702B010BD00BF280B00247D
:1030D800094BD3F84821022A0DD000B5D3E958127C
:1030E80083B0019122B1D3F8581101A8490890473B
:1030F80003B05DF804FB7047280B00240B4BD3F892
:103108004821022A10D0D3F8581110B5D3E9582411
:10311800C1F34F0382B0490802EB430301930CB19A
:1031280001A8A04702B010BD704700BF280B0024BB
:1031380030B58C463A4C3B4D8DB0046004F5A27E08
:10314800BCE80F00AEE80F00DCF800302046256030
:10315800CEF8003002F024FE0023D4F84C5103933B
:10316800C5B11622012D049217D00022D4F85411AB
:10317800D4F848319142CDE9062218BF02220592BF
:1031880033F0020235D0013B012B3CD900252846FB
:103198000DB030BD02230493E7E7234A0093C4F837
:1031A8000C31C4F81431C4F80421C4F81C31CDE939
:1031B800013301F077FCD4F844314BF68032C4F87F
:1031C8000851002B08BF1346B0FBF3F304F58270D7
:1031D800C4F8103108F0FEFD0028D8D12023029051
:1031E800694604F58270009309F042F80028BCD0C3
:1031F800CDE703A90A4802F0F5FE78B9D4F84831BA
:10320800013B012BC2D8102203A9054802F0EAFEAF
:10321800051E18BF012528460DB030BD0125B6E7AB
:10322800280B0024007400400010004070B50468AA
:103238001D4682B01046D4F84C31012B03D0D4F887
:103248004831022B24D1D4F85031069A002BC4F807
:103258005C11C4F864212B460CBF08260026C4F86C
:1032680060010A46C4F8585100212046009602F031
:10327800ADFDD4F860212B4610212046009602F0BF
:10328800A5FD04F5827008F045FE002002B070BD6F
:10329800012002B070BD00BF10B50468D4F84C31ED
:1032A800012B09D1D4F8483133F0020106D0013B93
:1032B800012B0BD9002010BD012010BD204602F0C3
:1032C80011FED4F84831013B012BF3D810212046D8
:1032D80002F008FE002010BD8378022B30B50446AA
:1032E8008FB037D0032B33D0012B31D000230A9372
:1032F800E378012B2AD0022B28D000230B9300233C
:1033080020460C9301F054FD0546204601F058FD77
:1033180023780990082B13D8DFE803F01F324558AB
:103328006B7E91A40500594BD3F8E02042F48072DB
:10333800C3F8E020D3F8E03003F480730893089BC7
:1033480009A9284603F0C2FF0FB030BD0B93D6E79A
:103358000A93CDE711230A93CAE74C4B09A92846DB
:10336800D3F8E02042F00102C3F8E020D3F8E030BF
:1033780003F001030093009B03F0A8FF0FB030BDDA
:10338800424B09A92846D3F8E02042F00202C3F8CC
:10339800E020D3F8E03003F002030193019B03F02F
:1033A80095FF0FB030BD394B09A92846D3F8E02066
:1033B80042F00402C3F8E020D3F8E03003F004033D
:1033C8000293029B03F082FF0FB030BD2F4B09A977
:1033D8002846D3F8E02042F00802C3F8E020D3F8EA
:1033E800E03003F008030393039B03F06FFF0FB073
:1033F80030BD264B09A92846D3F8E02042F0100238
:10340800C3F8E020D3F8E03003F010030493049BE2
:1034180003F05CFF0FB030BD1C4B09A92846D3F858
:10342800E02042F02002C3F8E020D3F8E03003F0B7
:1034380020030593059B03F049FF0FB030BD134BE4
:1034480009A92846D3F8E02042F04002C3F8E0205A
:10345800D3F8E03003F040030693069B03F036FFF1
:103468000FB030BD094B09A92846D3F8E02042F037
:103478008002C3F8E020D3F8E03003F0800307931C
:10348800079B03F023FF0FB030BD00BF0044025874
:1034980038B5054601F08CFC0446284601F090FC3E
:1034A80001462046BDE8384004F018B970B5064614
:1034B8000D4601F07DFC0446304601F081FC2A1ED1
:1034C8000146204618BF0122BDE8704004F00CB93F
:1034D8000023122270B586B0CDE902230493036855
:1034E800032B01D804230593061D841D304601F0E3
:1034F8005FFC0546304601F063FC034601A92846F7
:10350800019303F0E3FE204601F052FC03462046F7
:103518001C4601F055FC01A903462046019303F01F
:10352800D5FE06B070BD00BF634A0368934210B56C
:103538008CB028D0614A934258D0614A934200F037
:103548009480604A934201D00CB010BD5E4C5F4835
:10355800D4F8E03043F00203C4F8E030D4F8E030A7
:1035680003F002030A930A9BFFF7B2FFD4F8F43082
:1035780043F08003C4F8F430D4F8F43003F0800347
:103588000B930B9BE0E7504C5148D4F8E03043F0E4
:103598000203C4F8E030D4F8E03003F002030193EA
:1035A800019BFFF795FFD4F8E83000221F2043F471
:1035B80000131146C4F8E830D4F8E83003F40013D7
:1035C8000293029BD4F8D83043F00103C4F8D830F2
:1035D800D4F8D83003F001030393039B02F014FBE3
:1035E8001F200CB0BDE8104002F04CBB364C3948E7
:1035F800D4F8E03043F08003C4F8E030D4F8E03089
:1036080003F080030493049BD4F8E03043F00203F2
:10361800C4F8E030D4F8E03003F002030593059BCA
:10362800FFF756FFD4F8E8300022212043F4800346
:103638001146C4F8E830D4F8E83003F48003069360
:10364800069BD4F8D83043F00103C4F8D830D4F836
:10365800D83003F001030793079B02F0D5FA212025
:103668000CB0BDE8104002F00DBB1B48FFF730FF5F
:10367800154B00224820D3F8E840114644F40004D2
:10368800C3F8E840D3F8E84004F400040894089C20
:10369800D3F8D84044F00104C3F8D840D3F8D83060
:1036A80003F001030993099B02F0AEFA48200CB01D
:1036B800BDE8104002F0E6BA00540040005800404F
:1036C800005C0040001C0058004402581C0F0024F5
:1036D800940C00246C0D0024440E00242DE9F043C2
:1036E8001A4B87B000254FF010099E46EC46184B40
:1036F800FF22E04667461A700EF118060EF13004F4
:10370800CDE90055CDE90255ADF80090BCE80F00B1
:10371800CDE90455AEE80F009CE803000095ADF82C
:1037280000908EE80300B8E80F000FC69CE803007D
:103738000095ADF8009086E803000FCF0FC49CE811
:10374800030084E8030007B0BDE8F0830400002408
:10375800900C002410B5EFF3108472B6084B1A7859
:10376800120602D504B962B610BD1B78D8220548E6
:103778005BB202FB0300143003F056FAF2E700BF15
:10378800900C0024940C0024014804F005BF00BFED
:10379800200D0024014804F0FFBE00BFF80D0024EE
:1037A800014804F0F9BE00BFD00E00242DE9F04313
:1037B8000F68D8243F4D85B007FB04F4032F05EBB1
:1037C8000403036040DCCB680E46012B3CD84DD087
:1037D8004FF0D808B646DFF8FC9008FB0758BEE85B
:1037E8000F00C446ACE80F00DEF800300DF1100EF3
:1037F800CCF80030D8F808C099E80F000EE90F009F
:103808000EEB8703BCF1010F53F8103CC8F88C305D
:1038180031D0BCF1020F42D0BCF1000F35D0317C61
:103828008C34D823002201202C4403FB0753490081
:10383800C3E92602C3F894102046C3E92822C3E945
:103848002A2204F0DBFB18B1012005B0BDE8F083A3
:103858000146204604F0ACFE0028F5D1014620467A
:1038680004F0D0FE003818BF0120EEE70B7C103BB7
:10387800672BADD9E8E701F013F90F4B98420CBF5D
:103888000E4B0F4BC8F89030C9E701F009F90A4B05
:1038980098420CBF0B4B0C4BC8F89030BFE701F0B7
:1038A800FFF8054B98420CBF084B094BC8F89030FD
:1038B800B5E700BF940C0024000E27072D0FB03089
:1038C8003211D0205F4390608A62E030200BA01054
:1038D8001A098010782601082DE9F041046884B09F
:1038E8001E46E368BDF82C80C3B90D4617468C34D4
:1038F800204604F059FE2028FAD120460C9C334675
:103908003A462946CDE901840A9C009404F0F6FC65
:10391800003818BF012004B0BDE8F081012004B0D0
:10392800BDE8F0812DE9F041046884B01E46E368E3
:10393800BDF82C80C3B90D4617468C34204604F0D8
:1039480033FE2028FAD120460C9C33463A462946B5
:10395800CDE901840A9C009404F0A6FB003818BF46
:10396800012004B0BDE8F081012004B0BDE8F08179
:10397800044B10221A7483F8E82083F8C02183F8D6
:1039880098227047940C002430B5002395B04FF46A
:103998008071062204460B9306921393CDE90C130B
:1039A800CDE90E33CDE9113301F07EF807282BD08D
:1039B80004F1100541F2883206A9284605F034FCC6
:1039C80028B10123184684F85C3015B030BD0222B6
:1039D800022306A92846CDE9002310220123CDE9B8
:1039E800022300224FF48003CDE9042305224FF07F
:1039F800807306926A460F9341F2883305F080FD82
:103A08000028DED115B030BD0323012084F85C30D6
:103A180015B030BD0000000070B50023A4B04FF011
:103A280080724FF480750446ADF806300D93CDE9E9
:103A380010320122CDE90E53CDE91223CDE914331A
:103A4800002943D0F02300F1100508AEADF8063088
:103A5800C02341F2883231462846089305F0E4FB3A
:103A680028B10123184684F85C3024B070BD41F2B7
:103A780088320DF10601284605F040FC034600286F
:103A8800EFD105224FF480711E93284616924FF00D
:103A980080721B9321931F9202AA9FED1F7BCDE991
:103AA8001C13CDE922338DED027B9FED1D7B41F286
:103AB800883316A98DED047B9FED1B7B8DED067B6E
:103AC80005F01EFD0028CCD124B070BD00F1100512
:103AD80008AE612341F2883231462846089305F042
:103AE800A3FB0028BDD141F288320DF1060128461A
:103AF80005F082FC0028B4D1BDF80630204623F03A
:103B0800780343F04003ADF80630FFF73DFF002887
:103B18009ED0A6E7AFF3008000000000010000007F
:103B2800100000000100000000000000000040003C
:103B38002DE9F04F00234FF4807501264FF080786F
:103B480004462DED028BABB08DF80730139321930B
:103B5800299314950E96CDF85C80CDE91533CDE9FF
:103B68001863CDE91A33CDE92253CDE92433CDE9E1
:103B7800273306231C9300F097FF072808D004F189
:103B8800100741F288321CA9384605F04DFB40B1B8
:103B98000123184684F85C302BB0BDEC028BBDE8DD
:103BA800F08F4FF0020A4FF0020B4FF0050941F277
:103BB800883308AA1CA93846CDF89480CDF87090AF
:103BC8009FED2D8BCDE908AB4FF0000A4FF4800B29
:103BD8008DED0A8BCDE90CAB05F092FC0028D7D10E
:103BE80041F2883238460EA905F01EFB0028CFD1D5
:103BF800402341F288320DF1070138468DF807302D
:103C080005F07CFB0028C3D141F288330EA902AA33
:103C18003846CDF83890CDF85C809FED197B8DED56
:103C2800048BCDE906AB8DED027B05F069FC0346FC
:103C38000028ADD1CDF870904FF00109CDF89480EF
:103C48004FF00008219308AA29931CA93846229509
:103C5800CDE92333CDE9273341F288338DED0A8B43
:103C6800CDE90CABCDE9088905F04AFC002893D0D2
:103C7800304684F85C608FE7100000000100000007
:103C880040000000400000002DE9F043624CA3B062
:103C98000D46046000F008FF072800F0A980286896
:103CA80023466968AA6807C31E46AB8926F8043B01
:103CB8003046257B677B05F099FAE0B9574B012D13
:103CC8004FF00108E061236114BF4FF480134FF4F3
:103CD8000003C4E9058893FAA3F3B3FA83F34FF416
:103CE8008079013BC4F82490C4E90B003046236274
:103CF80005F010FA38B10122134684F85C20184602
:103D080023B0BDE8F08366230B90139041F288320C
:103D180006A90693CDE90C90CDE90E00CDE9110076
:103D2800304605F081FA0028E5D1992341F288321E
:103D380006A93046069305F077FA0028DBD105235B
:103D48001C9019906A4614934FF08073219014A91F
:103D58001D9341F288339FED2A7BCDE91A90CDE976
:103D68001F008DED007B9FED287B30468DED027B9B
:103D78009FED277B8DED047B05F0C2FB0028BAD1AF
:103D880029462046FFF748FE0028B4D12046FFF711
:103D9800CFFE03460028AED1002FB0D1189330468D
:103DA8000027002606AA14A9CDF86890CDE91F338C
:103DB800EB2314934FF440631B934FF40053179372
:103DC8004FF440431C93A0231693062319934FF0F6
:103DD800805321934FF04073CDE906671D9305F09A
:103DE80007FC034600288AD0434684F85C8086E7AF
:103DF80001230322184684F85C2023B0BDE8F08331
:103E08000000000001000000100000000100000098
:103E18000000000000004000F40F00240050005291
:103E28002DE9F04F8FB0414B0024026800AF9A4251
:103E38007C63C7E90944C7E90B4403D03C37BD4656
:103E4800BDE8F08F3A4B40F609213A48EB46D3F8E3
:103E5800D42007F11C0607F1220A4FF0020942F4A8
:103E680080424FF00308C3F8D420D3F8D42002F4DA
:103E78008042BA60BA68D3F8E02042F04002C3F842
:103E8800E020D3F8E02002F04002FA60FA68D3F8A4
:103E9800E02042F02002C3F8E020D3F8E02002F04E
:103EA80020023A613A69D3F8E02042F01002C3F8E0
:103EB800E020D3F8E02002F010027A617A69D3F8A2
:103EC800E02042F00202C3F8E020D3F8E030F861C5
:103ED80003F002033984BB61174B7B60BB697B68C5
:103EE80053F8040F7B6000F063FF7B680546186891
:103EF80000F066FF16F8013B786207F124012846B6
:103F0800C7F830807B63C7E90A9403F0DFF95645A8
:103F1800E5D100225C20114601F076FE5C2001F01C
:103F2800B1FE3C37DD46BD46BDE8F08F005000527B
:103F3800004402580A0A090950100024114B02686B
:103F48009A4200D07047104A70B5D2F8D4300F4C5E
:103F580023F4804304F11806C2F8D43054F8040F4F
:103F680000F026FF0546206800F02AFF0146284693
:103F780003F0ECFAB442F1D15C20BDE8704001F0E6
:103F88008FBE00BF00500052004402585010002459
:103F9800014805F0B9BB00BF04100024084B1A1DE6
:103FA800981D03F1080110B49C1C9A6603F10A02DB
:103FB800C3E91834C3E91B015DF8044B5A6770471D
:103FC800F40F002438B5036871B9026A00F12805B6
:103FD80000F5AC74012A0CBF002140218BBB1D4B9E
:103FE8005722C0F858310DE0426A00F1C00500F5CB
:103FF800E874012A0CBF00214021EBB1164B5A226C
:10400800C0F8D03100232046C4E901214FF4805282
:104018004FF48061636262614FF48042C4E9033106
:104028004FF48073C4E906234FF40033236202F08F
:1040380075F958B1FFBEFEE7084B5822C0F8D031D9
:10404800E0E7074B5922C0F85831DBE7C5E92044BF
:10405800A56338BD100002407000024028000240ED
:10406800580002402DE9F043821D05468BB0031D20
:1040780005F10A010830CDE9052305F10C02AB6909
:10408800CDE907010992002B3DD0EB69B3FA83F81B
:104098004FEA58180123022205AE0AAF4FF006096D
:1040A8000393CDE9012356F8044B2B7922789342E8
:1040B80016D02B68F3B1012B02D1F2B10A23049375
:1040C800204600F07DFE03462046009300F070FE77
:1040D800694603F0FBF8BE42E5D10BB0BDE8F083BA
:1040E800697963789942E4D1B8F1000FF3D02B686D
:1040F800002BE0D1CDF81090E2E76378022B14BFD3
:104108000A230823DBE74FF00108C3E7534A036893
:10411800934230B505468BB055D02032934252D0E9
:104128004F4A934204D02032934201D00BB030BDA5
:104138004C4C4D48D4F8E03043F00103C4F8E0306B
:10414800D4F8E03003F001030593059BD4F8E03080
:1041580043F00803C4F8E030D4F8E03003F0080373
:104168000693069BD4F8E03043F04003C4F8E030EF
:10417800D4F8E03003F040030793079BD4F8F030FD
:1041880043F40003C4F8F030D4F8F03003F400032B
:104198000893089BFFF766FFD4F8D830296843F0E6
:1041A80001032F4A3048C4F8D830891AD4F8D830D7
:1041B80018BF012103F001030993099B0BB0BDE867
:1041C8003040FFF7FFBE274C2848D4F8E03043F0D2
:1041D8000103C4F8E030D4F8E03003F001030093A1
:1041E800009BD4F8E03043F01003C4F8E030D4F872
:1041F800E03003F010030193019BD4F8E03043F062
:104208004003C4F8E030D4F8E03003F040030293F0
:10421800029BD4F8F03043F48003C4F8F030D4F8AB
:10422800F03003F480030393039BFFF71BFFD4F8DC
:10423800D830296843F00103084A0C48C4F8D8303C
:10424800891AD4F8D83018BF012103F00103049368
:10425800049B0BB0BDE83040FFF7B4BE04580140E2
:10426800045C014000440258C81200246C10002469
:10427800014802F0D9BC00BFC4110024014802F073
:10428800D3BC00BF3C120024014802F0CDBC00BFE3
:1042980020140024014802F0C7BC00BF9814002471
:1042A8001A4A0368934210B40BD02032934208D0C4
:1042B800174A934216D02032934213D05DF8044B2C
:1042C8007047144B0022D3F85442C3F85822002CEC
:1042D800F4D0D3F84802D3E9931223465DF8044B8F
:1042E800520818470B4B0022D3F8B044C3F8B42443
:1042F800002CE3D0D3F8AC24D3F8A814D3F8A40442
:10430800520823465DF8044B184700BF0458014083
:10431800045C01406C100024184A0368934210B4EE
:104328000BD02032934208D0154A934217D020323E
:10433800934214D05DF8044B7047124BD3E9942490
:104348005208C3F85822002CF4D0D3E9920123462E
:1043580001EB820100EB82005DF8044B1847094B22
:10436800D3F8AC24D3F8B0445208C3F8B424002CD2
:10437800E0D0D3F8A814D3F8A404E8E7045801401F
:10438800045C01406C1000242DE9F04F0C684FF4D8
:104398001776754F87B004FB06F6012C07EB060A63
:1043A800C0F800A000F3A0800D468E464FF000082C
:1043B800D44669A3D3E9002369A1D1E90001CDE975
:1043C800022306ABCAF8508203EB8403CDE904014B
:1043D80053F810BC53F8083CCAE992880193BEE828
:1043E8000F00ACE80F00BEE80F00ACE80F00019B1F
:1043F8009EE80300CAF828B0CAF8C0308CE8030069
:104408002B69042B0CD8DFE803F0737D8791030038
:104418004FF41773554A03FB04739A64C3F8E020FA
:10442800AA692B6A002A43D0002B4FF4177308BFE0
:10443800022203FB047318BF0322DA6201221A6303
:10444800EA696B6A002A40D1191E4FF4177318BF26
:10445800012103FB0473C3E931126B69022B05D8F0
:10446800434A12F80380434A52F823904FF41773D3
:1044780006F128004246494603FB047400233844E9
:1044880063646363E365C4F8DC30C4F8CC30C4F813
:10449800F430C4E90F33C4E91533C4E93533C4E94A
:1044A8003B33022307F0D2F9002849D0FFBEFEE7CC
:1044B800191E4FF4177318BF012103FB0473C3E9D6
:1044C8000B12EA696B6A002ABED0002B4FF41773EF
:1044D80008BF022203FB047318BF0322C3F8C420D9
:1044E8000122C3F8C820B8E7012007B0BDE8F08F63
:1044F8004FF417734FF4FA5203FB04739A64C3F82A
:10450800E0208DE74FF417734FF47A5203FB0473DE
:104518009A64C3F8E02083E74FF417734FF4FA4224
:1045280003FB04739A64C3F8E02079E74FF4177328
:104538004BF6803203FB04739A64C3F8E0206FE7FC
:1045480006F1C000022342464946384407F07EF986
:104558000028CAD0FFBEFEE704580140045C0140B1
:1045680024580140245C01406C10002400770100AD
:1045780014270108182701080068704770B50468F7
:1045880082B015460E46C4F85032C4E99212069A13
:10459800C4F85422A269012A26D0626A012A9AB272
:1045A80011D0294604F1C000019207F00BFA236AE2
:1045B800019A012B10D0294604F1280007F002FACD
:1045C800002002B070BD04F1C000019207F08CFA1F
:1045D800236A019A012BEED1314604F1280007F035
:1045E80083FA002002B070BD226A012A9AB211D063
:1045F800294604F12800019207F0E4F9636A019A58
:10460800012B10D0294604F1C00007F0DBF9002087
:1046180002B070BD04F12800019207F065FA636AE0
:10462800019A012BEED1314604F1C00007F05CFA83
:10463800002002B070BD00BF03681B69042B05D8B9
:10464800044A02EB830393ED000A70479FED020AC8
:10465800704700BF2427010800803B470368D3F850
:1046680058027047704700BF08B500F0B1FCBDE8BC
:10467800084001F091BB00BF064808B503680BB1BC
:1046880003F036F8044803681BB1BDE8084003F09E
:10469800E5BF08BD3019002428150024064808B5D0
:1046A80003680BB103F024F8044803681BB1BDE8A4
:1046B800084003F0D3BF08BD301900242815002492
:1046C800064808B503680BB103F012F804480368FC
:1046D8001BB1BDE8084003F0C1BF08BD3019002474
:1046E80028150024364BDA6A520062D59A6A9A6A0B
:1046F8009A6A9B6A180600D500BE314B9B6A9906D8
:1047080000D500BE2E4B9B6ADA0600D500BE2C4BA6
:104718009B6A1B0700D500BE294B9B6A980700D5EA
:1047280000BE274B9B6AD90700D500BE244B9B6A65
:104738001A0400D500BE224B9B6A9B0400D500BE1C
:104748001F4B9B6AD80400D500BE1D4B9B6A1905F8
:1047580000D500BE1A4B9B6A5A0500D500BE184BFF
:104768009B6A9B0500D500BE154B9B6AD80500D5F2
:1047780000BE134B9B6A990100D500BE104B9B6A83
:10478800DA0100D500BE0E4B9B6A1B0300D500BEA4
:104798000B4B9B6A580300D500BE094B9B6A9903D3
:1047A80000D500BE064B9B6ADA0306D400BE00BEE5
:1047B800FEE7DB6A9B07FAD5F8E700BEF6E700BF1D
:1047C80000ED00E000F010BC00F014BC2DE9F04151
:1047D800CEB004464C2200210AA80DF035FF202255
:1047E800002102A80DF030FFBC2200211EA80DF008
:1047F8002BFF022004F0A6FB2368012B4FF00003D7
:1048080054D0534A02250193C820D16A514B21F054
:104818000101D162D26A02F0010201929A6942F45E
:1048280040429A619B6903F440430193019B494AC2
:1048380093699B04FCD548490224002201268B6A0F
:1048480004274FF0080823F0030323438B62052352
:1048580016900AA818934FF4803310961794199459
:104868001597CDF86880CDE91B222122CDE91344A4
:10487800CDE90A2305F050F800B1FEE73F220323F3
:10488800294602A8CDE9022300220823CDE9042302
:1048980040224023CDE9062340234FF48062CDE92E
:1048A800082305F067FB0346B8B1FEE7294A04254B
:1048B8000093F0209169264B41F44041916192693F
:1048C80002F440420092DA6A42F00102DA62DB6ADC
:1048D80003F001030093009BA9E720224FF48051C5
:1048E80025934FF440152B9280222D931EA83093C8
:1048F800269135914FF48071249234920C2233948E
:10490800439140F2271120921022CDF884802A97F3
:104918001F96CDE92E34CDE93B334FF48033CDE9F2
:1049280022463193002446930623CDE93E4527933A
:104938004FF48063094C2C931E94CDE9281205F09E
:1049480075FD00B1FEE704F023FB4EB0BDE8F08131
:104958000004005800480258004402580F130F037F
:104968002DE9F0410D46044684B0D1E9000184E800
:10497800030000F0FDFAAE79002E37D06F460AF03A
:104988007DFEFEF7ABFE09F049FB0AF001FC2B792E
:10499800002B54D16B799BB1BFF34F8FBFF36F8F4F
:1049A8003C4B0022C3F85022BFF34F8FBFF36F8FE9
:1049B8005A6942F400325A61BFF34F8FBFF36F8FC9
:1049C8004FF0FF3200230024002539463248029276
:1049D8008DF80C30CDE9004509F040FF2E4809F06C
:1049E800A5FF08F04BFF04B0BDE8F08120466F46F4
:1049F800FFF7ECFE012401F07DF94FF040534FF42E
:104A0800807838460193254BADF80040CDE902384F
:104A180001F08EF919224FF0404338468DF80F40C7
:104A2800ADF80D808DF801408DF80A608DF80820EA
:104A3800019301F07DF9042001F06AF99FE7154C14
:104A48000023C4F88430BFF34F8FD4F8803043F686
:104A5800E07EC3F3C906C3F34E334FEA431C0CEAA6
:104A68000E00334640EA8372013BC4F860225A1CA8
:104A7800F8D1ACF1200C1CF1200FF0D1BFF34F8F0F
:104A8800636943F480336361BFF34F8FBFF36F8F64
:104A980080E700BF00ED00E0241500240E000103AC
:104AA80005F098BB05F0B2BB1C4B9B6803F178423C
:104AB800B2F5003F25D3B3F5803F20D303F1604220
:104AC800B2F5003F1FD303F15C42B2F5002F1CD3AF
:104AD80003F17042B2F5902F19D303F14842B2F5B1
:104AE800803F16D303F18042B2F1806F13D303F1F4
:104AF800E043B3F5000F2CBF0820072070470120C2
:104B08007047002070470220704703207047042038
:104B18007047052070470620704700BF00ED00E091
:104B280003480023034A044903600DF055BA00BF47
:104B380024150024000000246D46000810B4204C01
:104B48000022204B83B0D4F888101F4841F470012C
:104B5800C4F8881019681D4C41F0010119601A61E8
:104B6800196808401A4918609A61DA611A629A62EB
:104B7800DA621A635A639A63DA631A645A641868C1
:104B880020F4802018601A66D3F8DC2042F06042D6
:104B9800C3F8DC20D3F8DC300193019B236819406B
:104BA800B1F1005F03D20B4B0122C3F80821044B7B
:104BB8004FF000629A6003B05DF8044B704700BF85
:104BC80000ED00E0004402587FEDF6EA0010005CBA
:104BD8000000FFFF0080005100F57171D0F8040457
:104BE80008F034BAC1EBC10300EB8303D0F8040426
:104BF800D3F8082208F058BAC1EBC10300EB8303CD
:104C0800D0F804049A6C08F08DBA00BFD0F80404F8
:104C180008F02CBBC16810B5044619B1022900D0B0
:104C2800FEE70121D4F8040408F00AFBD4F80404D0
:104C3800BDE8104008F0DCBA10B50446D0F804040A
:104C480008F002FB2268D2F8003E43F00103C2F8E4
:104C5800003E236A23B1034A136943F00603136134
:104C680010BD00BF00ED00E0D0F8040408F0F6BA6B
:104C7800D0F8040408F00ABBD0F8040408F004BB18
:104C8800D0F8040408F004BBD0F8040408F002BB10
:104C98009446D0F898021A4608B5634604F042F8DC
:104CA800032802D8024B185C08BD022008BD00BFCB
:104CB80048270108D0F8980208B504F0C1F803287D
:104CC80002D8024B185C08BD022008BD482701081D
:104CD800D0F8980208B504F0F7F8032802D8024B78
:104CE800185C08BD022008BD482701080A06D0F84C
:104CF800983206D4C1EBC10103EB810191F8FE01A2
:104D0800704701F07F01C1EBC10103EB810191F80C
:104D18003E007047D0F8980208B503F0EDFF03286D
:104D280002D8024B185C08BD022008BD48270108BC
:104D3800D0F8980208B504F05BF8032802D8024BB3
:104D4800185C08BD022008BD48270108D0F8980261
:104D580008B504F025F8032802D8024B185C08BDF2
:104D6800022008BD48270108D0F8C00208F040BD5D
:104D7800D0F8C00208F054BDD0F8C00208F05CBDFD
:104D8800704700BFD0F8C00208F042BDD0F8C0029A
:104D980008F042BDD0F8D00308B503F069F803283D
:104DA80002D8024B185C08BD022008BD4C27010838
:104DB800024B027853F82200704700BF70270108A1
:104DC800024B427833F81200704700BF50270108A1
:104DD8008CB00A2814D8DFE800F01523313F4D5B6A
:104DE8006977859306004D4BD3F8E02042F4806242
:104DF800C3F8E020D3F8E03003F480630B930B9BF7
:104E08000CB07047454BD3F8E02042F00102C3F8DC
:104E1800E020D3F8E03003F001030193019BEFE7B2
:104E28003E4BD3F8E02042F00202C3F8E020D3F86A
:104E3800E03003F002030293029BE1E7374BD3F81B
:104E4800E02042F00402C3F8E020D3F8E03003F099
:104E580004030393039BD3E7304BD3F8E02042F0DD
:104E68000802C3F8E020D3F8E03003F00803049305
:104E7800049BC5E7294BD3F8E02042F01002C3F8A1
:104E8800E020D3F8E03003F010030593059BB7E763
:104E9800224BD3F8E02042F02002C3F8E020D3F8F8
:104EA800E03003F020030693069BA9E71B4BD3F8D9
:104EB800E02042F04002C3F8E020D3F8E03003F0ED
:104EC80040030793079B9BE7144BD3F8E02042F07D
:104ED8008002C3F8E020D3F8E03003F080030893A1
:104EE800089B8DE70D4BD3F8E02042F48072C3F89D
:104EF800E020D3F8E03003F480730993099B7FE73F
:104F0800064BD3F8E02042F40072C3F8E020D3F84F
:104F1800E03003F400730A930A9B71E700440258D7
:104F2800704700BF0F4B1B780BB90120704710B5B5
:104F380004464FF47A700C4AB0FBF3F31068B0FBE8
:104F4800F3F000F0C1FE0F2C00D808B1012010BD0D
:104F5800002221464FF0FF3000F056FE034B0020A0
:104F68001C6010BD540000244C000024580000248C
:104F780038B50320124D00F035FE124C04F05AFFEC
:104F8800114A12499369C3F30323CB5C03F01F034F
:104F980020FA03F30E202B60926902F00F028A5C5C
:104FA80002F01F02D3402360FFF7BCFF10B10124B9
:104FB800204638BD0446FFF7B3FF204638BD00BF82
:104FC8004C000024500000240044025838270108EF
:104FD800034A044B11681B780B441360704700BFE9
:104FE800F41B002454000024014B1868704700BFCC
:104FF800F41B002438B50446FFF7F6FF0546631C8A
:1050080002D0044B1B781C44FFF7EEFF431BA3425E
:10501800FAD338BD54000024014B1868000C7047BF
:105028000010005C704700BF806B08B5FFF7FAFFFF
:1050380008BD00BF836B5A6D12F0500F5A6D10B542
:105048001DD1196842F400725A650A6812F0080FF7
:10505800CA681BD012F4406F0DD1CA6894040AD4F0
:105068005A6D22F480725A655A6DD10403D45A6D70
:1050780042F001025A651846FDF762FE10BDD206DD
:105088000AD4DB6CBDE81040DB6C18479007E7D00A
:105098001846FDF755FEF1E71846FDF7F5FE10BD79
:1050A800806B08B5436D43F040034365836D43F05F
:1050B80004038365FDF7E8FE08BD00BFF0B50022D4
:1050C80083B0019290F85020012A00F01C81034619
:1050D80001201A6883F850009468640700F18A80F8
:1050E8000C68C4F31305002D40F08F80C4F384646A
:1050F800A0404D684FF01F0ED6694FEA951C30430B
:105108000CF00C0CD06105F01F0002F13005844052
:105118000EFA00FE5CF8050020EA0E0004434CF885
:105128000540906840076ED4956815F0080547D18A
:105138000C68072002F11406B94F4FEAD45CC4F397
:1051480004540CF0040C00FA04FE886800FA04F415
:105158005CF8060020EA0E0020434CF80600386888
:1051680000F07040B0F1805F00F0C580D068D6686C
:10517800C70600F1E880C6F382064869760000FA9F
:1051880006F60F69042F00F0C18002F16004086878
:1051980054F827C000F0F8400CF0004C40EA0C002E
:1051A800304344F82700487E0E69012854F8260049
:1051B80008BF4FF0004520F00040054344F8265052
:1051C8009068C40714D4CE68086806F01807954C90
:1051D800D2F8C050FC40C0F31307044025EA070585
:1051E8002C43C2F8C040904CA64246D0002816DB9B
:1051F800002003E05A6D42F020025A65002283F82D
:10520800502003B0F0BD9068DAE794FAA4F5B5FA37
:1052180085F5C4F3846405F01F05A84069E7834950
:105228008A4200F0B68001F580718A4200F0B180B0
:105238007F4D804CA968A46801F0E076E44304F04F
:105248000104002C00F0B4807B4CA04200F0FC80EC
:105258007A4CA04200F01A81794CA042C8D1490288
:10526800C6D474498A42C3D1AA68002022F0E072E9
:10527800324342F48002AA60C0E7002F6AD090FA55
:10528800A0F4B4FA84F4013404F01F04092C00F2E9
:10529800A48090FAA0F4B4FA84F490FAA0F5B5FAD0
:1052A80085F5013401260135A40605F01F0504F033
:1052B800F84406FA05F52C4390FAA0F0B0FA80F00D
:1052C800304400F01F0000EB400000052043C60DED
:1052D80002F11405C0F30450072406F0040604FA8A
:1052E80000F7745924EA07048F6807FA00F020438E
:1052F800705108687AE7D6684869C6F3820676006E
:1053080000FA06F63DE7022003B0F0BD106E0C6807
:1053180000F0F840A506B0EB846F30D0506E00F076
:10532800F840854226D0906E00F0F84085422BD098
:10533800D06E00F0F84085427FF442AFD06E20F086
:105348000040D0663CE77608486906F0080600FA8F
:1053580006F616E7800E441C04F01F06092E2DD809
:10536800A406012004F0F844B040044306EB4600CC
:105378000005ABE7506E20F000405066D3E7106E92
:1053880020F000401066C9E7906E20F0004090665B
:10539800CEE7264C2B4D04F58074A96854F8F86CB8
:1053A800A468344301F0E076E44304F0010448E7DC
:1053B8005A6D012042F020025A651FE706EB4600AD
:1053C800A50601241E3805F0F84504FA06F600057E
:1053D800354340F00070284379E790FAA0F5B5FA14
:1053E80085F590FAA0F4B4FA84F401350126013465
:1053F800AD0604F01F0405F0F84506FA04F4254349
:1054080090FAA0F4B4FA84F4344404F01F0404EBD2
:105418004404A4F11E00000540F00070DBE700BF63
:105428000010005CFFFF0F000000FF470020024053
:105438000063025800600258000084CB000052C785
:105448000000B8CF0023024008023FF5D1AE17494B
:105458008A427FF4CDAE164AA9681268154821F031
:10546800E07192093143A0FB020241F40001920964
:10547800A96052000192019A002A3FF4B9AE019A3C
:10548800013A0192019A002AF9D1B1E611F080702F
:105498007FF4AEAE05498A427FF4AAAEAA6822F02C
:1054A800E072324342F08072AA60A7E600600258B8
:1054B8004C000024632D3E0503689A68D20701D585
:1054C800002070479968214A114270B5044608D0F7
:1054D800636D012043F010036365A36D0343A36567
:1054E80070BD99681A4A0A4042F001029A60FFF7B3
:1054F8007BFD2368174A054693421ED002F5807249
:1055080093421AD0144A9268114E0AE09A683240BF
:1055180042F001029A60FFF767FD401B0228D7D8C6
:1055280023681A68D2070FD49A68D107EED5FFF717
:105538005BFD401B0228F3D9CAE7084A9268D006E7
:10554800E2D0074A9342DFD1002070BD3F000080BF
:10555800C0FFFF7F00200240006302580023024082
:10556800002102402DE9F0413A4D044600680F46FB
:105578001646A84219D0384B984216D0374DAB681A
:105588008068420716D494F85020012A12D003F0FC
:105598001F080122B8F1090F84F850200DD9002303
:1055A800012084F85030BDE8F0812D4DAB6880684B
:1055B8004207E8D50220BDE8F08140F2212323FA12
:1055C80008F3DB4313EA0205E9D12046FFF774FF2D
:1055D800002839D1626D234B2168134043F480734E
:1055E8006365B8F1000F02D01B4B994203D0636D7D
:1055F80023F480136365636D13F4805328D0A36D7F
:1056080023F00603A365E06C3346174D3A46403154
:10561800C563164D0564164DC5641C2541F8405CEC
:10562800002584F8505051F83C5C45F0100541F8CD
:105638003C5C01F031F822680E4B91680B4043F056
:1056480004039360BDE8F08184F85050BDE8F08110
:10565800A365D8E7002002400021024000630258F9
:1056680000230240FEF0FFFF3D50000831500008C3
:10567800A9500008C0FFFF7F38B503689A689107F2
:1056880002D59B68002038BD9A68D20723D59A684E
:10569800044602F00D02012A08D0636D012043F090
:1056A80010036365A36D0343A36538BD98680321A0
:1056B8000A4A024042F002029A601960FFF794FC1D
:1056C800054604E0FFF790FC401B0228E5D8236854
:1056D8009B68DB07F6D4002038BD00BFC0FFFF7F02
:1056E80038B5574A04460368934226D002F58072BB
:1056F800934222D0534B9B6813F4403F22D004F0CE
:1057080053FD63680546B3F5003F00F08880B3F5A4
:10571800403F70D0B3F5803F00F08180FFF77CFCFC
:1057280041F2030398422DD8474B9D425DD9226828
:10573800936843F48073936038BD444B9B6813F4BB
:10574800403FDCD14FF4002005F0FAFD63680546C0
:10575800B3F5101F6DD008D8B3F5E01F55D01AD98E
:10576800B3F5001FDAD14509D8E7B3F5201F4AD0B1
:10577800B3F5301FD2D1FFF74FFC41F20303984233
:1057880033D92D0A324B9D421DD82268936823F4E1
:105798004073936038BDB3F5801F06D00AD9B3F5BE
:1057A800A01F02D0B3F5C01FB8D19B0C5B00B5FB9E
:1057B800F3F5B3E7B3F5002FF7D023F40022B2F5E1
:1057C800802FF2D0AAE7234B234A2B4493421ED9B9
:1057D800224B234A2B449342226893682BD823F404
:1057E800407343F40073936038BD2268936823F4D0
:1057F8008073936038BD8508FFF70EFC41F2030300
:105808009842BFD890E7C50988E7050986E7226866
:10581800936823F4407343F48073936038BD1B0C82
:10582800B5FBF3F5FFF7F8FB41F203039842A9D85B
:105838007AE7850972E743F44073936038BD00BF87
:105848000020024000630258002D3101002302406D
:10585800105E5F00EFA1A0FF0F5E5F00DF4341FF16
:105868001FBCBE0030B5002383B00193002800F0B0
:10587800D080456D0446002D00F0BA8022689368F8
:105888009B0003D59168714B0B4093609368DD00D2
:1058980015D46F4B90686F491B6801406E489B098F
:1058A80041F08051A0FB030391609B090193019B88
:1058B8002BB1019B013B0193019B002BF9D193680C
:1058C800D80024D4636D012543F010036365A36DEC
:1058D8002B43A365936813F0040F636D1DD1D9069C
:1058E8001BD4636D23F4817343F0020363659368EB
:1058F800DB0728D4594B9A4217D003F580739A4294
:1059080013D0574B9B68D9071DD4564A15E09368A6
:10591800002513F0040F636DE1D0636D012543F09A
:1059280010032846636503B030BD4C4A4E4B92685D
:105938009B681343D80706D44C4A9368616823F4DC
:105948007C130B439360FFF767FB41F20303A168E5
:105958009842237F52D894F815C01A04206B42EA63
:105968004C3202430A43012B03D1236A013B42EA2A
:105978004342636A23B103F47873A16A0B431A4361
:1059880023683B49D86801400A43DA609A6812F0F4
:10599800040F9A681CD112071AD4D868354A217D99
:1059A800024042EA8132E16A0A43DA6094F8382018
:1059B800012A3AD01A6922F001021A611A692046AE
:1059C800616B22F070420A431A61FFF789FE23686F
:1059D800E268012A21D01A6B22F00F021A63636D64
:1059E800284623F0030343F00103636503B030BD89
:1059F800FDF754F9A56584F850503FE71029AAD15E
:105A0800617D1A0442EA4132216B0A4342F01C02CA
:105A1800A9E70125284603B030BD196BA26921F01A
:105A28000F01013A0A431A63D9E7D4E9102118692A
:105A38000A43114901400A43A16C0A43E16B42EA57
:105A4800014242F001021A61B8E700BFC0FFFF5FE0
:105A58004C000024C0FFFF6F632D3E05002002406C
:105A680000600258006302580021024000230240EF
:105A780003C0F0FFFCBFFFFF1EF800FCF0B50023D9
:105A880083B0019390F85030012B40D00123044695
:105A98000E46154680F85030FFF7EEFDE8B9676D01
:105AA80005F080421B4B06F480311B4D3B401B4FD9
:105AB80043F00203636523689E68354015430D4330
:105AC80045F000459D609A68002A0FDB636D23F05E
